:020000041000EA
:1000000000B5324B212058609868022188439860DF
:10001000D860186158612E4B002199600221596106
:100020000121F02299502B49196001219960352056
:1000300000F044F80222904214D00621196600F024
:1000400034F8196E01211966002018661A6600F04E
:100050002CF8196E196E196E052000F02FF8012189
:100060000842F9D1002199601B49196000215960AB
:100070001A491B48016001219960EB211966A021F2
:10008000196600F012F800219960164914480160C1
:100090000121996001BC002800D000471248134993
:1000A000086003C880F30888084703B5996A0420EC
:1000B0000142FBD001200142F8D103BD02B5186610
:1000C0001866FFF7F2FF186E186E02BD00000240BE
:1000D000000000180000070000035F00212200005C
:1000E000F4000018222000A00001001008ED00E03C
:1000F00000000000000000000000000074B24E7A12
:1001000000200420F7010010C3010010C5010010F9
:10011000C1010010C1010010C1010010C101001097
:10012000C1010010C1010010C1010010C701001081
:10013000C1010010C1010010C9010010CB01001065
:10014000CD010010CD010010CD010010CD01001037
:10015000CD010010CD010010CD010010CD01001027
:10016000CD010010CD010010CD010010CD01001017
:10017000CD010010CD010010CD010010CD01001007
:10018000CD010010CD010010CD010010CD010010F7
:10019000CD010010CD010010CD010010CD010010E7
:1001A000CD010010CD010010CD010010CD010010D7
:1001B000CD010010CD010010CD010010CD010010C7
:1001C00000BE00BE00BE00BE00BE00BEEFF3058054
:1001D000103800BEF2EB8871EC7C07100C7D071024
:1001E0003402001090A31AE700201F49086006C8D7
:1001F00081F3088810471D48006800282FD10DA4FE
:100200000ECC002902D000F012F8F9E71849194A7B
:10021000002000E001C19142FCD1174988471749ED
:1002200088471749884700BEFDE701C901C29A42C5
:10023000FBD370470C7D0710C0000020EC1B002092
:100240005898071000000420000004205898071058
:10025000001004200010042000000000704709482E
:1002600001F0EEFA0047000008ED00E0000000D0C9
:10027000101C002064E0002039FE0210550300101D
:10028000A1FF02105756000006005250ABB3605356
:10029000A074071006005250861C0302B0740710A9
:1002A000060052505422A29DBC7407100500525003
:1002B000DE65F46858980710F8B5C0460448054B49
:1002C00010B5834203D0044B002B00D0984710BDDB
:1002D000EC1B0020EC1B0020000000000648074932
:1002E000091A8B10C90FC91810B5491003D0044B57
:1002F000002B00D0984710BDEC1B0020EC1B002009
:100300000000000010B5074C2378002B09D1FFF73F
:10031000D5FF054B002B02D0044800E000BF0123AD
:10032000237010BD501D00200000000068A50310C0
:10033000054B10B5002B03D00449054800E000BF71
:10034000FFF7CCFF10BDC04600000000541D002088
:1003500068A5031070B588B001AD32F07BF900F0EC
:1003600071FA00F0CFFA00F0DDFA00F0F7FA00F0D1
:100370000FFB2A00104B114E13CB13C213CB13C229
:100380001B78137000F01AFB00F06CFB041C31F0BA
:1003900037FE02000B00300032F050F92800211C1B
:1003A00000F078FA00F05AF90021201C31F0F2FD3B
:1003B0000028E7D1E8E7C0466CA5031068A5031044
:1003C00010B50400024832F039F90023236010BD53
:1003D00088A5031010B50400154832F02FF9012349
:1003E000237123680020002B17D01800002105F08E
:1003F00079F900220021206805F084F900212068A5
:1004000005F078F92068002105F08CF9206805F0E6
:10041000C3F9002802D10023236010BD0100054864
:1004200032F00CF9206805F0ABF90D204042F2E7FC
:100430009CA50310A8A5031070B50D001400002999
:1004400036D0244831F0A4FF28000FF019FE224ACC
:100450000100224832F0F2F81F4A2900204B2068A0
:1004600005F070F9021E00D170BD1E4B1E491B68BD
:10047000D86834F0DDF90123206823710028F3D017
:10048000002105F02FF900220021206805F03AF93B
:100490000021206805F02EF90021206805F042F9BE
:1004A000206805F079F9011E0CD100232360DBE7F9
:1004B00001000E4832F0C2F80123206823710028A1
:1004C000DED1D1E70A4832F0B9F8206805F058F9D2
:1004D000EBE7C046C8A5031089130000E0A5031090
:1004E000F50400102012002004A6031028A6031013
:1004F000A8A5031070B511000400002A14D12148EA
:1005000031F046FF012100200FF090FF1E4D280022
:1005100034F082FE012382B22900206805F04AF9F6
:10052000002821D1002070BD184832F087F801233F
:10053000206823710028F5D0002105F0D3F80022AF
:100540000021206805F0DEF80021206805F0D2F8CF
:100550002068002105F0E6F8206805F01DF9002864
:1005600005D100232360DEE701000948DDE7010033
:10057000084832F063F8206805F002F90D20404287
:10058000EFE7C0465CA603104038002048A60310E1
:1005900084A60310A8A50310F0B5C64600B5050053
:1005A0000E00140000AF002A25D01289002A07D1BE
:1005B000200004F005FD0020BD4604BC9046F0BDBF
:1005C00013006D460833DB08DB00EB1A9D46E84656
:1005D00069460023200004F057FE0022414623898B
:1005E0001B48CA54694632F029F83000218905F0C9
:1005F0009DF8AD46DCE7174831F0CAFE01232B71A8
:100600002B680020002BD7D01800002105F06AF8D5
:1006100000220021286805F075F80021286805F0FF
:1006200069F82868002105F07DF8286805F0B4F81D
:10063000002802D100232B60BEE70100064831F0FC
:10064000FDFF286805F09CF80D204042F2E7C04607
:10065000B4A60310A0A60310A8A50310F0B50021AE
:1006600083B0002015F0E0F9644D060028600821F1
:10067000012031F011FD041E00D1BBE02E2130001D
:1006800005F0D8F92060002800D1A1E0210005F094
:1006900029F81E225A49206805F034F85949206883
:1006A00005F028F85849206805F03CF8206815F056
:1006B000B1F9564E31002FF06BF93100544831F04A
:1006C000BDFF14F0EFFA01A923003000514A03F0F6
:1006D000CFFE011E49D0431D24D114F0EDFA237939
:1006E000002B0ED100274C4E0FF0B0FE02F064FB41
:1006F0008019794100290CDB0FF0B4FE2379002B1F
:10070000F2D0200031F0DAFC286815F0D9F903B0F6
:10071000F0BD0120414940420FF0A4FE2379002B97
:10072000E2D0EEE73E4831F089FF012324682068DB
:100730002371002816D0002104F0D4FF00220021EC
:10074000206804F0DFFF0021206804F0D3FF0021BF
:10075000206804F0E7FF206805F01EF8011E3BD179
:100760000023236014F0A8FAD1E701A80FF088FC59
:100770002C4A01002C4831F061FF2A4A2B4B20689B
:1007800001A904F0DFFF021EA7D0294B29491B68ED
:10079000D86834F04DF801232068237100289CD0DC
:1007A000002104F09FFF00220021206804F0AAFF2E
:1007B0000021206804F09EFF0021206804F0B2FFB1
:1007C000206804F0E9FF011E0DD10023236084E7B7
:1007D000194831F0DDFD9AE7184831F02FFF206805
:1007E00004F0CEFFBCE7154831F028FF206804F084
:1007F000C7FFEAE7124831F0CBFD88E7F837002061
:10080000D503001099050010C103001014A70310B0
:1008100024A703103904001040420F00FFFFFF7FA0
:1008200034A7031089130000E0A50310F50400109D
:100830002012002004A60310FCA60310A8A5031094
:10084000E0A6031010B50FF019FE00280CD10FF030
:1008500091FD0A4B0A4A0B490B480FF099FD030022
:100860000120002B05D110BD084831F091FD00207A
:10087000F9E7074831F08CFD0020F4E730750000FF
:100880000400400074A7031080A703105CA70310A6
:1008900088A7031070B50400B4B0081C31F0B0FB99
:1008A00002AD009001910A4AC821280030F0DEFE16
:1008B000280034F0B1FC074E030022000649300046
:1008C000009530F0BFFE300031F062FD34B070BDF5
:1008D0009CA7031040380020B0A7031004228021F9
:1008E000054B49001A60054A13680B42FCD0536857
:1008F000034A9BB21380704700E0044000C00440EC
:100900009810002070B5D02480252406ED03162011
:1009100001F068FB65620021162001F08BFAA561E9
:1009200070BDC04610B533F021FF1F211A2001F021
:100930003DFA002200211A2001F050FA00211A206D
:1009400001F03CFBE022034BD2011B681340024A3A
:10095000136010BD00C0044000D0044070B5D02426
:10096000802580260A20240601F03CFBED00F601DC
:100970000E2001F037FB6562032166620A2001F058
:1009800059FA03210E2001F055FAA661A56170BD48
:1009900010B5022001F026FBD02304221B069A6228
:1009A0000121022001F00AFB012204210220024B56
:1009B00001F07AFA10BDC046DD080010F8B5DE4639
:1009C00057464E464546E0B502F0F6F900239846F4
:1009D000D0231B0699468023DB0304000D009B46B1
:1009E0009A4600271B4E4B465246200029009A612A
:1009F0008019794102F014FA0422174B17491A6042
:100A0000FC320B681342FCD04B689BB293421AD85D
:100A10004B465A46002112485A610019694102F0BA
:100A2000FFF902F0C9F9434601339BB204000D00FF
:100A30009846022BD7D180234A46DB01936180235D
:100A4000DB009361CFE73CBC90469946A246AB469B
:100A5000F8BDC046400D030000E0044000C0044063
:100A600020A10700D0238022F0B5DE465746454638
:100A70004E461B06D201E0B55A61FA227B4C520069
:100A8000A544002105A831F025FB02F095F9FA23D1
:100A9000DB009C460021604402F0C2F902F08CF9B0
:100AA00000239B4600230293714B00269846714B0E
:100AB0005F469A46704D0190042253461A60FC32FC
:100AC0002B681342FCD043466C681B88A4B2A34237
:100AD00001D943461C8043461B88E41ACC34A4B297
:100AE000F52C15D8FA22D2009446019B00216344CC
:100AF000180002F095F902F05FF90136B6B20190E4
:100B0000FA2E00D182E0002300270293BB46D3E7F0
:100B1000601C31F011F9594A594B31F07EF831F02F
:100B20004FF98146200031F007F9564A564B31F013
:100B300074F831F045F9029B05AA5B00D452391CC8
:100B4000061C5846039331F0DCF9FC21890531F08D
:100B5000F2F9391C31F0D8F94946041C31F028FA71
:100B6000002850D0311C201C31F01CFA00284AD03B
:100B7000029B05AE5A1C9346F92B51D0039B04AA45
:100B80001F009446062363449C4600246744308833
:100B900031F014FA011C201C31F0B6F90236041CA5
:100BA000B742F4D1584631F009FA011C201C31F04B
:100BB000AEF9FE218905041C31F0A6F931F020FAC6
:100BC0002E4A2F4B31F029F831F0FAF88146201CDB
:100BD00031F016FA2C4B2B4A31F01FF831F0F0F8B7
:100BE0005B46061C0293FA22D2009446019B002128
:100BF0006344180002F014F902F0DEF8B3464F46E1
:100C00000026019058E700230293ECE7002083239D
:100C10009B009D443CBC90469946A246AB46F0BD25
:100C20000024002582AF308831F086F802000B00E6
:100C30002000290030F0ECFF023604000D00B7421E
:100C4000F1D10022114B30F0E8FF0022104B30F0C0
:100C5000DAFF00220F4B30F0E0FF31F0B1F8D02383
:100C600080221B06D2005A61D1E7C046F4FDFFFF87
:100C70009810002000E0044000C00440C05B204108
:100C8000F163F03F8048BF7D1D38EF3F00406F406B
:100C9000008069400040614010B50AF06DF810BD59
:100CA0000123F0B50B7283B004000AF099F8050037
:100CB000431C0DD11249134B1A685B6800920193D3
:100CC0008A60CB60236820005B69984703B0F0BD61
:100CD00002F072F8FA2206000F000023280000211B
:100CE000920031F0F1F836184F41002F03DB044930
:100CF0008E60CF60E6E70126034F7642F7E7C046F5
:100D0000A810002070A80310FFFFFF7F70B5094DE9
:100D100004002B78002B08D00123074920000B7218
:100D20002368DB699847012070BD02F017FC01239E
:100D30002B70F1E7303800209C10002010B5040023
:100D4000036804499B699847236820001B6A02498D
:100D5000984710BDA81000209C100020002070476C
:100D60007047C04610B502F027F8002905D0FA22D6
:100D70000023920030F04AFD10BDFA21890030F0C6
:100D800007FDF9E7020083680832002B04D107E071
:100D90001A001B68002B03D09942F9D1002003E010
:100DA0000023012011600B607047C0468368002B50
:100DB00008D0994202D107E0994207D01A001B6877
:100DC000002BF9D100207047020008320B68012087
:100DD0001360F8E74368021D002B04D107E01A00F6
:100DE0001B68002B03D09942F9D1002003E00023B7
:100DF000012011600B6070474368002B08D09942B6
:100E000002D107E0994206D01A001B68002BF9D1E5
:100E100000207047021D0B6801201360F9E7C046EF
:100E2000F8B54746CE468368804680B5002B27D06C
:100E300008234344994601F0BFFF0B0041468968EF
:100E40000200002956D0CC4600208C68CD681600E0
:100E50001F00361BAF41002F02DB22002B00604633
:100E60008C4609680029F0D1002843D001680B683E
:100E700003604B684046984743469B68002BDAD195
:100E800043465C68002C31D00025237A002B29D002
:100E9000210063682572404698472468002CF4D1ED
:100EA000174B1868596843469E68002E04D112E01B
:100EB00020002900002E0ED0330002009C68DD685F
:100EC0000B00121BAB413668002BF1DCF2D1002A7B
:100ED000EED1002EF0D14346186159610CBC90460A
:100EE0009946F8BD2468002CCFD1D9E7044B186887
:100EF0005968F0E743465C68002CC5D1D0E7C0468E
:100F000070A80310024B18688007C00F7047C046D6
:100F100000C006400F4A104B10B512184B41990003
:100F2000900F0843990F504059400C4A0C4B30F039
:100F3000CBFF4A01C30E1343CA0E58405140094B20
:100F4000094A30F0C1FF4A00C30F1343CA0F58408B
:100F5000514010BD157C4A7FB979379EB9E5E41C34
:100F60006D4758BFBB49D094EB113113F0B50468FD
:100F700045684F464646D64623002A008146C0B5FE
:100F800008680E00496803430A43134304D101F083
:100F900013FF03000B43FAD02A06230A60402706FA
:100FA00013432A0A69403A43070CB8460F04BC466B
:100FB0004B409A464746634642401F4303045A400B
:100FC0004B461A6052467A4013004A465360C20E9E
:100FD0004B014001C90E1343014333607160AB0004
:100FE000A10F0B43A200A4185D41EB01620E1A434E
:100FF000E4016B0E23431E0017005B0FD100F000CD
:101000001943801979411CBC90469946A246F0BD0F
:10101000F0B5DE4657464E464546E0B5AF4B8DB07F
:101020001B78002B00D1DDE0AD4BAE4D9846AE4BAA
:10103000AE4F02930AAB08AC059310223900200092
:1010400031F04EF8AA4B1B78DBB2049301F0B4FEEA
:10105000FFF760FF089B5840636808905940A54B14
:1010600061609B69DB0431D5A34BDA6BE02313404D
:10107000402B2BD0EFF305830093A04BA2469B4659
:101080002C686E68009B20003100002B1BD001F003
:10109000C7FEEFF3108972B65B461B68002BFBD0CE
:1010A000BFF35F8F2B68A34213D0BFF35F8F002283
:1010B0005B461A6089F310882C686E68009B2000DC
:1010C0003100002BE3D101F061FDE2E72EF09EFF3D
:1010D000D0E76B68B342E8D10126864B5446D86905
:1010E000064001F069FE0A220023801859410029B8
:1010F00000DA71E043461A685B6892185B41286029
:101100006960110030001A004346084300910192C3
:1011100018605A60BFF35F8F0025784A156089F325
:1011200010880199FFF7F6FE754AA3689446584067
:10113000E368A0605940029B724A1B78E160DB00C3
:101140006344986890424BD00021FFF7E3FE089B70
:1011500018406368089019406160EFF3108572B61B
:10116000664A1368002BFCD0BFF35F8F604B049A74
:101170001B7893420FD0089B3A68534008937A68D3
:10118000636853406360BA68A3685340A360FA6819
:10119000E3685340E36020000599FFF7E7FE102263
:1011A00080460E003800210030F09AFF504B504A24
:1011B0001B780133DBB21370BFF35F8F00224F4BFC
:1011C0001A6085F31088404631000DB03CBC904653
:1011D0009946A246AB46F0BD01204B49404289E703
:1011E0009D60B1E7494B984618685968484B9C4642
:1011F000484B9946830E8F011F438601030C0D0453
:101200001D4332003B00040412196B41121A8B413A
:10121000614601C98C460021009001910098019916
:1012200080185941CC45E5D1434618605960FFF715
:1012300071FE089B08AC584063680890594006A8A6
:10124000616000F029F906980799FFF763FEA3682B
:101250005840E368A0605940264BE1609B69DB047D
:1012600038D5254BDA6BE0231340402B32D0EFF317
:101270000583984640230093204B002600279A467A
:10128000A146184D4346029603976C682F682100CB
:101290003800002B1BD001F0C3FDEFF3108B72B6AA
:1012A00053461B68002BFBD0BFF35F8F2B68BB42FC
:1012B00032D0BFF35F8F002253461A608BF3108841
:1012C00043462F686C6838002100002BE3D101F001
:1012D0005DFCE2E72EF09AFEC9E7C04639380020EF
:1012E000081C0020481D002029380020F81B002081
:1012F0002A3800200000064000800040300100D065
:1013000000000340FFFFFF00FFFFFF7FF01B0020F6
:10131000001C0420002004206B68A342C9D1029E57
:10132000039F300039004D4B80197941DA69012360
:10133000134003431E000F00002401F03DFD0A236B
:10134000C0186141002940DB009B28606960012BC7
:1013500043D1434B4C4698461E605F60BFF35F8F9E
:10136000404B994600234A4613608BF310883000A7
:101370003900FFF7CFFD089B58406368089059403B
:10138000616001F019FDFFF7C5FDA3685840E368EF
:10139000A0605940E160EFF3108A72B64B461A68BC
:1013A000002AFCD0BFF35F8F2F4B1B78002B1FD080
:1013B0002E4B2F4F02930AAB0593BFF35F8F002292
:1013C000284B1A608AF3108837E601202949009BD0
:1013D000404228606960012BBBD0BFF35F8F0023C0
:1013E000524613608BF31088009B013B009349E742
:1013F000214BDA681F2A2AD05A691F2A24D0DA69B9
:101400001F2A1FD05B6A1F2B24D02EF0FFFDFF2662
:10141000FF23164AF6001370184B02929C460523D0
:10142000664473600AAB190020000593FFF79EFD28
:101430000F4F10222100380030F052FE01230A4ADB
:101440001370BAE702230093009EF3B2E1E7002392
:101450000093F9E71C3B0093F6E7C0460000064006
:10146000081C0020300100D0393800202938002025
:10147000F81B0020FFFFFF7F00000340080003402F
:1014800010B5FFF7C5FD10BD10B5024800F0EAF831
:1014900010BDC0467837002010B50822014930F051
:1014A0001FFE10BD7837002030B54B1E012900D13A
:1014B000B0E06B4A11780D112C0030349F2900D90F
:1014C000ABE00470012B00D1C7E00F21147821405C
:1014D0000C003034092900DDA1E04470022B00D15A
:1014E000BBE051780D112C0030349F2900D999E0D0
:1014F0008470032B00D1B0E00F21547821400C0000
:101500003034092900DD8FE0C470042B00D1A4E041
:1015100091780D112C0030349F2900D987E0047197
:10152000052B00D199E00F21947821400C00303434
:10153000092900DD7DE04471062B00D18DE0D178D2
:101540000D112C0030349F2900D975E08471072BD0
:1015500000D182E00F21D47821400C0030340929D9
:1015600000DD6BE0C471082B00D176E011790D111C
:101570002C0030349F2964D80472092B00D16CE010
:101580000F21147921400C00303409295BDC4472AE
:101590000A2B62D051790D112C0030349F2955D877
:1015A00084720B2B59D00F21547921400C00303418
:1015B00009294DDCC4720C2B4FD091790D112C00F0
:1015C00030349F2900D9073404730D2B45D00F21E7
:1015D000947921400C003034092901DD37310C00A9
:1015E00044730E2B39D0D1790D112C0030349F2942
:1015F00000D9073484730F2B2FD0D1790F220A40E2
:1016000011003731092A01DC30321100C173102B6F
:1016100023D010300023037030BD073451E7373139
:101620000C005AE7073463E737310C006CE70734E6
:1016300075E737310C007EE7073487E737310C0058
:1016400090E7073498E737310C00A0E70734A7E7A5
:1016500037310C00C4720C2BAFD1C018DAE7C0468A
:101660007837002030B5002589B004000922002118
:1016700001A8009530F02EFD0922002105A804954F
:1016800030F028FD4B236A466846137004A90D22EA
:1016900038F0E2FE152108222000694430F020FDD8
:1016A00009B030BDEFF3108072B6034A1368002B07
:1016B000FCD0BFF35F8F70472C0100D0BFF35F8F6A
:1016C0000022024B1A6080F3108870472C0100D072
:1016D000F8B5EFF3108772B60E4E3368002BFCD0CE
:1016E000BFF35F8FCB08C4180725A446C45C012351
:1016F0000D40AB4018002040234208D162462343EE
:101700001370BFF35F8F306087F31088F8BD10004F
:101710002EF064FC2C0100D0F8B5CE4647468C462E
:1017200080B5EFF3108872B6214D2C68002CFCD0E8
:10173000BFF35F8F9A422CD8D4080721055D0619A4
:10174000012411408C402C421FD0072189460639C4
:1017500009E0D408055D06194C460F001440A74067
:101760003C002F4211D001329342F2D2012040427C
:10177000BFF35F8F00220E4B1A6088F31088002899
:101780000FDB0CBC90469946F8BD2C43100034701A
:10179000EEE7BFF35F8F00232B6088F310880120F2
:1017A00040426346002BECD008982EF017FCC04650
:1017B0002C0100D070B5EFF3108672B60A4C236886
:1017C000002BFCD0BFF35F8F07230122CD08194007
:1017D0008A40435D93434355BFF35F8F00232360EB
:1017E00086F3108870BDC0462C0100D00021044B48
:1017F000044ABFF35F8F02C39342FAD17047C046D9
:10180000000100D0800100D0044A1078431CDBB2F4
:10181000172B00D9102313707047C046C01000204A
:1018200000B5054B83B00100009318221F23034825
:10183000FFF772FF03B000BD38A80310802D002011
:10184000142310B50100188804331B88984710BD75
:10185000162310B50100188802331B88984710BD65
:10186000F0B5C64600B5002916D0142304000125A2
:1018700098461827890046184346216818883B88EF
:10188000984701C4431E984140420540A642F3D107
:10189000280004BC9046F0BD0125F9E730B50C20C6
:1018A00083B001F0F3FDFFF72DFB00280ED0944B21
:1018B000944A1A605A609A60DA601A615A619A61B1
:1018C000DA611A62904A5A6203B030BD8F4CA06749
:1018D00001F030FE01228E4B1A60636C012BFCD1AB
:1018E00003228C4B1A60894A936B012BFCD1013384
:1018F0000121894A89480093043301F073FD0523CF
:10190000874A00930121874801F06CFD864B5A6895
:10191000FF2A02D8802252005A608022784C7D4BE8
:1019200021691201804D1A60002905D060692FF0ED
:101930002FFF01300138FDD1E0217B4B02201A68D6
:101940001140802252012A43116019684840032146
:101950000140116004219A681142FCD0802280214C
:1019600092012A4309011160802252005A606F4B94
:1019700023616F4B5968FF2900D85A6003226C48D5
:10198000634B01211A60020093681942FCD0E025E4
:1019900013681D4080235B0103431D6012684A40A9
:1019A0000321114019600221614A93681942FCD059
:1019B000802380219B0103430901196080215D4B35
:1019C0004900516063615C4B5A68FF2A00D8596036
:1019D00080225A4BE1691201574D1A60002905D047
:1019E00060692FF0D5FE01300138FDD1E022524967
:1019F0000B681A4080235B012B431A6080238022EE
:101A00009B012B4312011A6080223E4B52004A6018
:101A1000E3614B4B5968FF2900D85A608022494B3B
:101A2000216A1201464D1A60002905D060692FF025
:101A3000AFFE01300138FDD1E02241490B681A4068
:101A400080235B012B431A60802380229B012B4360
:101A500012011A60802380225B004B60294BD20266
:101A60002362394B5968914200D25A608022374B29
:101A7000616A1201344D1A60002905D060692FF0A7
:101A800087FE01300138FDD1E0222F490B681A4052
:101A900080235B012B431A60802380229B012B4310
:101AA00012011A608023DB024B60174B6362284BE4
:101AB0005A68FF2A02D8802252005A608022254BA1
:101AC000A1691201224D1A60002905D060692FF02A
:101AD0005FFE01300138FDD1E0221D490B681A403C
:101AE00080235B012B431A60802380229B012B43C0
:101AF00012011A6080235B004B600E4BA361E3E68A
:101B0000842D0020006CDC021BB700000080004028
:101B10003CB0004030B00040002F685900800240C7
:101B2000008C864700C0024030800040001BB70098
:101B30003C800040405973075480004054B000403E
:101B40006080004060B000406C8000406CB000409D
:101B50004880004048B00040014B8000C0587047AA
:101B6000842D0020D0231B061B68F0B59A00454643
:101B700090464146894ADE465258574693465A1E79
:101B8000934130224E465B421A40854BE0B59C465D
:101B9000844B08269A4683B0624400923500083D83
:101BA000EA081300009908339B005C58002C23D0EE
:101BB0005B46002B2AD001230F279946390021408C
:101BC000274213D04B4652464046AB4012581A4269
:101BD0000CD1072208002A40920090400200EB0836
:101BE00071483C339B001A502800D847240901351E
:101BF000002C01D0B542E1D30836282ECED103B057
:101C00003CBC90469946A246AB46F0BD0F23190056
:101C10002140234207D047460E3BAB406148C059A4
:101C2000184200D196E02309F11F002BE4D00F22C7
:101C3000100018401A420FD0012345468B40594AE4
:101C400052591A4208D10722CB0811408900884016
:101C5000554A3C339B009850230AB11F002BCBD030
:101C60000F22100018401A420FD0012345468B4026
:101C70004C4A52591A4208D10722CB081140890018
:101C80008840494A3C339B009850230B711F002B1E
:101C9000B2D00F22100018401A4239D1230C311F44
:101CA000002BA9D00F22100018401A4241D1230D59
:101CB000F11E002BA0D00F22100018401A4252D162
:101CC000230EB11E002B97D00F22100018401A428D
:101CD00006D0012345468B40324A52591A4253D00E
:101CE000240F721E002C00D186E70123404693404A
:101CF0002C4909580191194200D07DE70721D308EA
:101D00000A40920094403C33274A9B009C5073E762
:101D1000012345468B40234A52591A42BED107221D
:101D2000CB081140890088401F4A3C339B009850E3
:101D3000B4E7012345468B401A4A52591A42B6D19C
:101D40000722CB08114089008840174A3C339B008A
:101D50009850ACE707231D40AD00A940124B3C3220
:101D60009200D1505FE7012345468B400D4A5259FE
:101D70001A42A5D10722CB081140890088400A4A9F
:101D80003C339B0098509BE70722CB081140890009
:101D90008840054A3C339B009850A1E7702D0020F5
:101DA000004101406437002000400140094A83009F
:101DB00094464022634410B51C68C0006240C024B1
:101DC00014408022520113431C60034B9C46604424
:101DD000416010BD04C00140004001400A4B80003A
:101DE0009C4604236044002901D00C230821002ACA
:101DF00000D10B00026853400C221A4080235B0183
:101E0000184302607047C04604C00140084B800080
:101E10009C466044002905D080239B01184302237F
:101E200003607047C0239B01184302230360F8E757
:101E300004C00140064B80009C46604403680901D1
:101E400059403023194080235B01184301607047DB
:101E500004C00140D0231B061B6830B55C1EA341A3
:101E600005000F485C428446072030232840234069
:101E70008000EC08814020000A4D3C306344800023
:101E8000A40041511B19002A04D08022920113435F
:101E9000196030BDC022920113431960F9E7C046B2
:101EA0000041014000400140F8B51E00D0231B0650
:101EB0001C680700631E9C41302364421C40224B77
:101EC00015009C46C30807201A0038408000814056
:101ED0003C321E48644492009B001150E418002DCF
:101EE00011D080239B011C43D02321601B061C685A
:101EF000174FA4003B59002B11D0002E1ED03E518D
:101F0000002D16D1F8BDC0239B011C43D0232160B6
:101F10001B061C680E4FA4003B59002BEDD1002E70
:101F2000EED000220D200B493E5100F0DBF8002DD1
:101F3000E8D001210D2000F073F8E3E70D200549FA
:101F400000F0B0F9DBE7C04600410140004001402D
:101F5000702D0020651B0010D023F0B5C64604008C
:101F60001B0698461B680C4F9B00F8580D00160086
:101F700000B5044209D13200290004430D20FC5071
:101F800000F0B0F804BC9046F0BD2EF03FF8434698
:101F90001B689B00F858EEE76437002010B504007A
:101FA0000D2000F07FF9D0231B061B6802499B001F
:101FB0005A58A2435A5010BD64370020084B800085
:101FC0009C466044002905D080239B011843402390
:101FD00003607047C0239B01184340230360F8E768
:101FE00004C001400123D022834012069362936112
:101FF000094A83009446402263441968C0004A405D
:10200000C02111408022520113431960034B9C46AA
:10201000052360444360704704C001400040014014
:1020200001238340002904D0034A1360034A13604C
:102030007047034A1360FBE780E200E000E100E044
:1020400080E100E001238340014A13607047C046ED
:1020500000E200E0084B10309B688000C358002B62
:1020600007D0064A00209B1A2F229A424041C0B254
:1020700070470020FCE7C04600ED00E0C4100020DF
:10208000024B10309B688000C058704700ED00E0A4
:1020900070B50D00EFF3108672B60F4A1368002B6F
:1020A000FCD0BFF35F8F0D4B10309B6884001B5931
:1020B0000B4A934203D09D4201D02DF0A7FF074B5E
:1020C0009B681D51BFF35F8FBFF35F8F0022024BF0
:1020D0001A6086F3108870BD240100D000ED00E086
:1020E000CD010010F0B557464E464546DE46E0B5F8
:1020F000894683B005001700EFF3108A72B65D4A77
:102100001368002BFCD0BFF35F8F00205A4B18568A
:102110009B4600286CDB5A464400584E2418A40005
:10212000331998469B7910351370554BAA009B685C
:1021300001929B589C469B1B2F2B28D8012261465D
:102140009143CB79BB4208D86AE053009B189B00AF
:10215000F318DD79BD4251D9190006228A56002AAA
:10216000F3DA0B1D9B46474E43465C46043B1B1B64
:102170001B05454C5B0D23438B80887141468A715A
:102180004A46424B8E800B60CF718A601BE0404B09
:102190009C4542D142463F4B023413803E4B361998
:1021A000043B9E1B3605384B760D1E433B4B568039
:1021B0009380FF23D771937143464A469A60012367
:1021C00042461A43944661462D4B019A9B689950AA
:1021D000BFF35F8FBFF35F8F0022264B1A608AF335
:1021E000108803B03CBC90469946A246AB46F0BD71
:1021F0002DF00CFF5B46002018568CE70B1D9B460C
:102200008B8804345B051B155B4436199E1BE02349
:102210003605760D1B021E43A6E72DF0F7FEB9E743
:1022200045460B001E489B1B5B415843000D194B54
:102230002B80A31C9C46B4446546174B0434043BD6
:102240005B1B1B05104D5B0DAC462B4345463619F9
:102250006B800B1F9E1B6346A87148463605760DA2
:102260001E430A4BAE80EF71A8600B6043461343D8
:102270009C46A8E7240100D033380020C410002079
:1022800000ED00E001BD000000E0FFFF01488047D5
:10229000CD01001000A1FFFFF410002001BDFFFFE1
:1022A000AAAA0000F0B5DE4657464E464546E0B5C0
:1022B0000C0083B0EFF3108972B6594A1368002BF3
:1022C000FCD0BFF35F8F574B9A68030010339F0019
:1022D000D559554A9046954232D0A54243D0534EE7
:1022E000AA1B2F2A2CD80122824092465146504ADE
:1022F00012681140019151464E4A1160BFF35F8F41
:10230000EFF305829346002A33D101232A009A4332
:1023100093689C4208D178E04B005B189B00F3184F
:102320009968A1422AD01A00062151560029F3DAF1
:10233000019B002B19D052463F4B1A603C4B1A6050
:10234000384B9B68DD51BFF35F8FBFF35F8F002277
:10235000334B1A6089F3108803B03CBC9046994611
:10236000A246AB46F0BD1500EAE75246314B1A6073
:10237000E6E79342C9D02DF049FEC6E7062159563B
:10238000002922DB4A005018800034188046A068DB
:102390009860E079D871062020569871A0797F283E
:1023A00024D8A488F01A6405241544440019E024B4
:1023B0000005400D24022043988052181F4B9200C4
:1023C000B6181A781970B271B2E7594600290FD1C0
:1023D000FF3191711A49918018490A789A71194A06
:1023E0009B1B5B415A43120D0A70A1E71648E3E7B5
:1023F000164A1749D21A083A5002400D01439980F3
:10240000144952080A43DA8092E706215156130014
:102410000029B7DA5A46002AEAD14546DCE7C04629
:10242000240100D000ED00E0CD010010C410002018
:1024300000E100E080E100E080E200E033380020CD
:1024400001BDFFFFAAAA000001BD0000FE10002090
:1024500000F0FFFF00F8FFFFF0B5EFF30581012466
:102460000443EFF3108672B6214A1368002BFCD0A8
:10247000BFF35F8F1F4B05001F4AED1A6D416A4382
:10248000120D1E4D8900AF6852B27F58A7421CD072
:102490000621595691421CD012215956914222D000
:1024A0001E215956914220D02A2159560324914287
:1024B00010D0134B19781A708171BFF35F8F00220F
:1024C0000B4B1A6086F31088F0BDAB680D4C5C5066
:1024D000EFE700246100091989005B18FF21997159
:1024E00009499980E5E70124F4E70224F2E7C046B0
:1024F000240100D0C4100020AAAA000000ED00E0D2
:1025000033380020CD01001001BDFFFF054B064A06
:102510001360064A136053609360D3601361536184
:10252000936170478080808000E400E004E400E074
:1025300000B5074B83B00100009300220523054836
:10254000FFF7EAF8002801DB1F23181A03B000BDCB
:1025500054A803103D38002070B504000E0015008B
:10256000FFF752F90100200000F006F8A680E58090
:10257000BFF35F8F70BDC046024B9C46614489002B
:10258000016070474000003410B50400FFF73CF9CB
:1025900001002000FFF7F0FFFF232371BFF35F8FDF
:1025A00010BDC04610B50400FFF72EF90100200051
:1025B000FFF7E2FFFF23A380BFF35F8F10BDC0468C
:1025C00010B504000120FFF72BF9034BC3189B0043
:1025D0002360BFF35F8F10BD40000034034B9C4667
:1025E000614489000160BFF35F8F70474000003491
:1025F00083680B4810B584466144624409011201A6
:102600009A18591854684B6801209C4201D802D08E
:102610000020C0B210BD12680B689A42F9D8F7E7E3
:10262000FFFFFF0F0A4B1968EFF3108072B60A68BC
:10263000002AFCD0BFF35F8F1B68BFF35F8F0022BF
:102640001A6080F3108840BF002000217047C04608
:1026500088370020F8B5574645464E46DE46E0B579
:1026600099460CAB19780DAB1B78050090469A463D
:102670000768002912D1BE7B002E45D074003B684C
:10268000A419033C1B195A783100BA73002A00D1EF
:10269000FA7300229A705A701A7003E00E004C0010
:1026A0006418033C2C4B00229C46AB6861449C465A
:1026B0004346090161440B604B464B600A9B8B60AB
:1026C0000B9BCB603B681B199A705A701A707B7B0E
:1026D0009B46002B2CD032005946B8687B6898473F
:1026E0003A68002817D05B4658465B005B441419D3
:1026F000033BA070D118D35C002B00D063705B4605
:102700000E707B73B34514D030003CBC90469946A4
:10271000A246AB46F8BD5B465B005B44033BD31867
:102720009E701119125D002A00D05A705B460B7022
:102730007E7342464B46287D00F0C8FB041E06D03F
:102740005346002B03D13100286800F00DFE0E9B8C
:10275000002BD9D01C70D7E7FFFFFF0FF0B5DE4686
:1027600057464E4645460023E0B58BB00893664B6E
:102770008200D45800239B46099000F01DFB62683C
:1027800006000F00EFF3108572B61368002BFCD023
:10279000BFF35F8F23689C465B7B9946002B68D014
:1027A000A2685A4B90464B441B01984443461A6812
:1027B0005B6810001900801BB941002963DD09988E
:1027C00000F084FB00230022984600230692079322
:1027D00000239A466368BFF35F8F5A461A6085F3F9
:1027E00010885346002B08D10028C6D10BB03CBC42
:1027F00090469946A246AB46F0BD089B414618025A
:102800004B461843D047626806000F00EFF310856F
:1028100072B61368002BFCD0BFF35F8F002F4FDB25
:1028200033003B4302D02369002B60D12368DA7B5D
:10283000002A07D051008A1819688C46494662441C
:10284000033A51709A7B002A01D14A469A734A464C
:10285000DA734B46E168013BCA5C0132CA545B46FD
:1028600023616368BFF35F8F5A461A6085F310884F
:1028700083E7002300229846002306920793002353
:1028800000209A46A6E7002901D1002897D100210F
:10289000604600F0C7FC43461A685B6806920793DF
:1028A00043469B689A464346DB689846E3684B4438
:1028B000013B1B7808931B0203432361002089E737
:1028C0002369002BB2D0069A079B921BBB41002BB9
:1028D00015DB594604910121039149460291414675
:1028E0000191514620000091FFF7B4FEB7E700F0D8
:1028F00063FA32003B0012184B41002BE9DA012247
:10290000034B5242E5E7C04654370020FFFFFF0F5C
:10291000FFFFFF7F10B5144C6368002B04D00A2121
:102920001248FFF729FE10BD2300114A102120682C
:1029300000F092FB032000F033FA032000F038FB94
:1029400003200C4900F07CFAFEF75EFF0A4B9C4620
:1029500003232375D0231B061B6860446375074B54
:1029600080006060DC60DAE70C110020883700200E
:10297000F12500105D27001040000034543700207E
:10298000004870470C110020F0B557464546DE461A
:102990004E46E0B585B0019310AB1B78002703933A
:1029A000002380469A46009243465A68EFF3108906
:1029B00072B61368002BFCD0BFF35F8F43461D68CF
:1029C000AC7B002C4FD066002B683619033E9B1958
:1029D0005A78AA73002A00D1EA7342469F705F704A
:1029E0001F7092684A4B94460099019AE3181B01A4
:1029F000634419605A600E9A9A600F9ADA602B68E5
:102A00009B199F705F701F706B7B9B46002B46D09D
:102A100022001900A8686B6898472A68002831D0FE
:102A20005B4658465B005B449619033BB070D11877
:102A3000D35C002B00D073705B460C706B735C45ED
:102A40002ED04346DB681B19013B187843465B6870
:102A5000BFF35F8F1F6089F310885346002B2ED180
:102A60000002204307E05B68BFF35F8F1C6089F3BF
:102A700010880120404205B03CBC90469946A246D1
:102A8000AB46F0BD5B465B005B44033BD3189C70D8
:102A90009119925D002A00D05A705B460B706C73DE
:102AA0004346187D009A019B00F010FA82460028E8
:102AB000C7D043462100186800F056FCC1E7039BCD
:102AC000002B23D00E9B00200F9998470300040091
:102AD0000D000B431AD000290ADA009A019B121B41
:102AE000AB4100920193002B0ADB039B9A465BE704
:102AF00000F062F924184D4100940195002DF4DA9C
:102B00000123044C5B4200930194EEE70020B2E7FE
:102B1000FFFFFF0FFFFFFF7F70B542680400EFF378
:102B2000108572B61368002BFCD0BFF35F8F20684E
:102B3000CAB2437B93420AD0FF230B405E00F318D6
:102B40000668B4466344033B9B78002B13D0E668C9
:102B5000FF23B4460B406344013B090A1E78C9B207
:102B60008E420DD000206368BFF35F8F00221A6091
:102B700085F3108870BD22698A42F3D12361F1E7A1
:102B8000110000F0F1FBEEE7407D7047F0B5040066
:102B90000D0006267642F717C64636196F4100B576
:102BA00084B08F4214D811D000F006F932003B00F7
:102BB000121A8B41002B15DC002B3ED0200029007F
:102BC00000F02EF904B004BC9046F0BD8642EBD96B
:102BD0000026002700F0F0F832003B00121A8B416B
:102BE000002BE9DD002302930193154B3200009383
:102BF00014483B00FFF7C8FE0028DFDB002398469F
:102C0000BC46114A114F7B6A9C4504D8B96A8E4272
:102C1000D4D99C45D2D11168EFF3108072B60B68FD
:102C2000002BFCD0BFF35F8F1368BFF35F8F41466B
:102C3000196080F3108820BFE5E7002ABED0D1E7F5
:102C4000252600100C110020883700200040054088
:102C500070B5060000F0B0F8FA2204000D00002361
:102C60003000002192002FF02FF90019694100294E
:102C700002DBFFF78BFF70BD012001494042F8E7FE
:102C8000FFFFFF7F70B5EFF3058305000C0084B0F4
:102C9000002B0FD0104B0020596A8C4203D89B6A3E
:102CA0000130AB4201D304B070BD641A611E8C4187
:102CB000E0B2F8E7094E02930193094B020000933A
:102CC00030000B00FFF760FE011EE3DD20BF300087
:102CD000FFF722FFDEE7C046004005400C11002050
:102CE00025260010F0B5EFF30582D6464F4646463E
:102CF0001000C0B51038EFF3108872B6214C23686D
:102D0000002BFCD0BFF35F8F0123190081401E4DC3
:102D10001F006963AA461D4D29601D4D2E78AC46E3
:102D20003500C5402F402B4215D05346194D5F6AE0
:102D300083005D59AF4218D3174A8E439B586246B1
:102D40001670BFF35F8F0022226088F31088002B7B
:102D500006D0984704E0BFF35F8F276088F31088A0
:102D60001CBC90469946A246F0BD0C4B92009C4676
:102D7000624413681360BFF35F8F0023236088F3FE
:102D80001088EDE7280100D0004005403C70054068
:102D90003C380020DC3700205C2B0020D03F054071
:102DA00010B50100024A0348FEF792FC10BDC04670
:102DB00078A803102B380020034B596A0A00986A40
:102DC000596A8A42FAD170470040054070B5040044
:102DD0000D00124A536A1900966A536A8B42FAD15F
:102DE0003000190024184D41AB4211D80ED02B00F1
:102DF0000A494A6A9A42FCD307D1084A02E0516A5A
:102E0000994202D1916AA142F9D370BDA642EED98E
:102E1000012301246442E5175B42E9E700400540D5
:102E2000064A536A9942FCD807D1044B02E05A6A19
:102E3000914202D19A6A8242F9D37047004005401C
:102E400070B504000D00EFF3108672B61A4A1368CD
:102E5000002BFCD0BFF35F8F002D1BD02000FFF7AD
:102E60000FF9164981420AD02000FFF711F901211C
:102E70002000FFF7D5F80123A340114A1360114B3E
:102E8000A400E550BFF35F8F00220B4B1A6086F35E
:102E9000108870BD0B4BA200D5500122A2400A49F8
:102EA00020000B7893430B700449FFF7FBF90021D6
:102EB0002000FFF7B5F8E5E7280100D0E52C001069
:102EC000386005405C2B00203C380020F0B54F46B0
:102ED000D6464646C0B50700304C616A0D00A66A6A
:102EE000616AA942FAD18B4208D805D001201CBCE6
:102EF00090469946A246F0BDB242F7D9EFF3108949
:102F000072B6274801680029FCD0BFF35F8F012506
:102F10002449BD408C460978204C0E002E4388463B
:102F2000F1B28A46614650460870391D1E48890034
:102F300065630A51B9000B50216A0020294219D05B
:102F4000616A0800A66A616A8142FAD18B4219D887
:102F500001D1B24216D8C2451DD0104B1F201D62B0
:102F60005D6301230740BB40104A1E38136063466F
:102F700042461A70BFF35F8F0022094B1A6089F333
:102F80001088B4E70020BFF35F8F0022044B1A6063
:102F900089F31088ABE70120ECE7C046004005400C
:102FA000280100D03C380020DC37002080E200E01F
:102FB00010B5EFF3108472B60A490B68002BFCD0F1
:102FC000BFF35F8F01238340074A084813620278EA
:102FD0009A430270BFF35F8F00230B6084F3108865
:102FE00010BDC046280100D0004005403C380020FC
:102FF00070B505000E001400002924D0002A24D04A
:1030000080686B689847296800280ED063001B19F8
:103010007200033B9219CB18033A9E7088188A5CA1
:10302000002A14D1047030000EE073009B19620076
:10303000033B1219CB18033A9C7088188A5C002A4B
:1030400000D05A700670200070BD0800FCE75A706E
:1030500004703000F8E7C04630B583600023CCB27E
:1030600043730133047342608373C4730D000068BB
:10307000012C06D9421C0133DBB2137003329C428F
:10308000F9D1FF2129404B0059180023401803387B
:10309000437030BDF8B5CE46474606000C0080B5FB
:1030A000002907D04D0003686D18033D5A19577861
:1030B000002F04D120000CBC90469946F8BD790041
:1030C000C919033988464344597889460021597003
:1030D000517073683A00210080689847336800286F
:1030E00014D042469A18947059195B5D002B00D099
:1030F00053700F70270049463000FFF7CBFF3900AF
:1031000002003000FFF774FF0400D3E74246414657
:103110005D19AF709A185B5C002B00D06B70147057
:10312000E9E7C046F0B557464546DE464E46E0B5AF
:103130000D006B0001685B19DF1E0400C85D83B0E1
:103140000192CA19002850D043001B18033BCB182A
:103150005E78B446002E1AD1019E002E42D0E67B46
:10316000002E04D073009B19CB18033B5D70A37B2A
:10317000002B00D1A573E57300282FD100235370D5
:1031800003B03CBC90469946A246AB46F0BD7200E7
:103190006244033A89184A78904600224A70914660
:1031A0005A70010032002000FFF722FF434682469A
:1031B000002B07D05B0021684344033BCB185A78AF
:1031C000002A16D1424651462000FFF711FF216820
:1031D000019BCA19002BC2D10028CFD043001B1875
:1031E000033BCB1800219970C8E7019B002BB6D197
:1031F000C4E75000801803380918487883464846C9
:103200004870587041462000FFF7F2FE594680464C
:103210002000FFF73FFF414602002000FFF7E8FED5
:103220008046CFE7F0B54E464546DE465746E0B508
:10323000467B040075000068AD19033D83B0019121
:10324000415D4219002952D04B005B18033BC31863
:103250005F78BC46002F1CD1019D002D44D0E57B3A
:10326000002D04D06B005B19C318033B5E70A37B79
:10327000002B00D1A673E673002931D10023300062
:103280005370617303B03CBC90469946A246AB466E
:10329000F0BD7A006244033A8018427893460022D7
:1032A000427091465A7020003A00FFF7A1FE5B463B
:1032B0008046002B07D05B0021685B44033BCB18A2
:1032C0005A78002A17D15A4641462000FFF790FE4F
:1032D000019B010020684219002BC0D10029CDD0EC
:1032E0004B005B18033BC31800209870C6E7019B96
:1032F000002BB4D1C2E75000801803380918487871
:10330000824648464870587059462000FFF770FEC4
:1033100053468346002B07D05B0021685344033B90
:10332000CB185A78002A06D1594652462000FFF79A
:103330005FFE8346C7E750008018033809184846E7
:103340004F784870587051462000FFF751FE390001
:1033500081462000FFF79EFE494602002000FFF74D
:1033600047FE8246E0E7C04670B5040000292CD035
:10337000437B8B422ED0056848004018033828183C
:103380008278002A21D053009B18033BEA5CEE1898
:103390008A4202D11BE0002A08D053009B18033B4D
:1033A000EB185A788A42F6D142785A7000230122EB
:1033B000837043702000FFF7B5FE617B02002000A0
:1033C000FFF716FE6073012000E0002070BD437817
:1033D0003370EBE701221900FFF7A4FE60730120B0
:1033E000F4E7C046F8B504000C2017001D000E00DD
:1033F0002EF0CEF94101091A8B01591AC90009189A
:10340000890138002EF0C4F9069A2B0412031343E5
:103410002268002A21DB194AA21851424A41802120
:1034200049018C4652420A40154962440A601549D6
:103430000A60154917008D68AF43FBD1C021221DDA
:103440008901114321222660A0600A602268002AB7
:10345000FCDAE36008230B60F8BD3F2221680A40D4
:10346000B242D8D1A2681205120D8242D3D1EE2108
:10347000E268C9020A409A42CDD1EDE70040FDBFA3
:1034800000E0004000F0004000C000408023024AFD
:103490009B000343D36270470080054010B51400C1
:1034A00080221B4BD2051A6000281AD00123194A2A
:1034B0001843194BDA61194A42401A6259629862FC
:1034C0008022134BD2051A601549164A1160E0227A
:1034D000D2041A60002C07D18022134B12061A6006
:1034E00010BD0D4BD861EBE780236201121B9200E7
:1034F000121912015B049A4200D30C4A0C4B1A6059
:10350000054B5A608022084BD2051A60E8E7C04696
:1035100000B00540D3C007B0008005402D3FF84FF4
:10352000FCFF01000820014000A00540FFFFFF0054
:1035300018370020AA23064A1B0113602F230549D0
:10354000D360054B19605368002BFCDA7047C04606
:103550000040024000B0FA000060024010B502F0E6
:10356000A3F801F09BF801F0CDF801F083F907F022
:103570004BFC02F017FE00F0CDFB07F0B5FB10BDD1
:1035800040BA80B27047C04600BA7047531EF0B5CB
:103590009C460024202702E00134002D10D0055D58
:1035A0000B5D9D420AD02E003E43F6B23200613AD6
:1035B000192A07D83B43DBB29E4203D1A445EBD185
:1035C0000020F0BD0120FCE7F8B54746CE4680B5A7
:1035D000070104003818000110308146404D414E6B
:1035E0002B688846B144002B02D02A7AA24258D0D8
:1035F000EB68002B02D02A7DA2424BD0AB69002B96
:1036000003D02022AA5CA2423DD06B6A002B03D0DB
:103610002C22AA5CA2422FD03B191B01F318DB7BA2
:10362000002C04D0B27A022A41D0012C06D08D227F
:103630005200B25C022A43D0022C05D02A4AB25C66
:10364000022A43D0032C03D0284AB25C022A42D07B
:10365000032B0DD8264D9B00585907F02FFF002251
:103660003C1924013619F37B9B005A510423F37350
:103670000CBC90469946F8BD41464846AA6A984710
:1036800000236B62C8E741464846EA699847002331
:10369000AB61BAE7414648462A6998470023EB6088
:1036A000ACE748466A68984700232B60A0E7F27BA6
:1036B0009A42BAD104233F193F01F619F373D7E7B1
:1036C0002022FF32B25C9A42B6D1F3E7094AB25CDB
:1036D0009A42B7D1EEE7084AB25C9A42B8D1E9E71C
:1036E000642E00209C2E00202A0200003A030000D5
:1036F000542E00202F0200003F030000F0B5DE46EC
:103700004E46574645468346E0B5030187B0534AC7
:1037100001935B441B01D618F27A012A00D99AE082
:103720004F4992008C58002C00D183E010331D00CB
:103730004A4B9C466544280031F06EFDA0221230B1
:1037400081B29200362001F0CFFA8146002800D1E4
:103750007EE003AC0C22002120002EF0BBFC30895F
:10376000FFF70EFF01232080A3700C22FF332100FE
:103770004846A38001F0D4FD3A4B0C269A464F46AA
:10378000013D6B1C98466B78002445462E2B06D1D4
:103790005BE06B7801340135E4B22E2B01D0002BB5
:1037A000F7D14246AA1A92B223009146F318534524
:1037B00045DC22003100380001F09AFE731C4146BE
:1037C0009BB234194A46380001F0F8FDA1B22B78BB
:1037D0004E1CB6B2002BD4D10C00002231003800B0
:1037E00001F086FE204B02340422029302A9A3B208
:1037F000380001F0E3FD194A019B944618495B44E7
:103800001B0163448C46DA7ADB7B18499B009200EB
:10381000585862443523390007F0B4FD04003800DD
:1038200001F0CEFB200007B03CBC90469946A24672
:10383000AB46F0BD0021FFF7C7FEB472F2E70624E5
:10384000380001F0BDFB6442ECE700239946ADE788
:1038500001246442E6E706482CF0C0FB9C2E0020C1
:10386000942E0020FEFF000000010001542E0020D5
:103870009CA80310F8B5CE464746040080B503283F
:1038800000D97EE00501404E2A181201B1188B7A4A
:10389000022B36D02AD8002B24D03C4B8D279846BB
:1038A0003B4B7F009946FDF7EBFDB37A80B2022BCC
:1038B0003DD0F35D022B3ED04346F35C022B40D05B
:1038C0004B46F35C022B42D02D192D012A007319AF
:1038D000188102230832B2185380013B20009380E4
:1038E000FFF70CFF0CBC90469946F8BD032B45D161
:1038F000B358002B16D100232A191201B218937263
:10390000F0E70B7B013BDBB20B73002BEAD14B7B67
:103910000133DBB24B73042B1FD00B732000FFF776
:10392000EDFEDFE7013BB350002BE4D0DAE733894B
:103930008342BED1B7E71733FF33F35A8342BBD17B
:10394000B1E78A239B00F35A8342B9D1ABE7CE2378
:103950009B00F35A8342B7D1A5E7CB7A002B08D15D
:103960000C4B5B68002B04D00123B218CB729381FF
:10397000D4E700212000FFF727FEBCE706482CF023
:103980002DFB06482CF02AFB9C2E00202A0200006A
:103990003A030000942E0020D0A80310B4A803100E
:1039A000F0B55746DE464E464546E0B51F00138942
:1039B00014008DB00F2B09D8200001F001FB0DB0D1
:1039C0003CBC90469946A246AB46F0BD00230C2273
:1039D000200006A901F058FC05000C28ECD104AB2E
:1039E0001889FFF7CDFDC04EB37A022B75D08D2319
:1039F0005B00F35C022B77D0BC4BF35C9846022B48
:103A000000D17BE0BA4BF35C022BD5D1CE239B00D7
:103A1000F35A8342D0D1032398469B4604AB98893E
:103A2000FFF7AEFD04AB8146D889FFF7A9FD04ABD3
:103A300001909B7A7F2BBFD94B46012BBCD15B46B3
:103A40001B015B441B01F318DB7AAA499B003A680F
:103A5000CB589A42B0D188235A465B005A430E3B5A
:103A6000FF3B9946A24603921032B71829005046F0
:103A700001F02AFD00282EDB9F4B9D422BD0C02356
:103A80000135ADB20340C02B25D000283FD03B18F4
:103A90009A4C029319E049463B78E25C0A40012ABD
:103AA00000D12033FF2249461040225C0A40012AFF
:103AB00000D1203083420ED18F4B9D420BD0029B10
:103AC00001350137ADB29F4221D02900504601F0A7
:103AD000FBFC0028DFDA54466EE73389834286D147
:103AE000002398469B4699E71733FF33F35A8342E6
:103AF00000D081E7012398469B468FE78A239B00ED
:103B0000F35A834200D07DE702239B4686E72900D3
:103B10005046013701F0D8FC0028DCDBA6D1764BFB
:103B200054469D4200D147E76F1CBFB29F4200D16F
:103B300042E73B000422504604A901F0A5FB0428FB
:103B400000D039E7802304AA52885B009A4200D053
:103B500032E704AB1B88934200D02DE7684A9742B6
:103B600000D929E704AAD27A12075CD19946053513
:103B7000ADB2019B002B00D1A4E02389AB420ED84B
:103B8000A0E023893818984200DB15E785B22900A8
:103B9000200001F099FC002800DA0DE710D06F1C1E
:103BA00029002000BFB201F08FFC002800DA03E7F3
:103BB000002F00D100E7C0230340C02BE1D13D001E
:103BC0004D4B9D4200D1F7E66A1C92B292469A4252
:103BD00000D1F1E609AF130039000A22200001F0FC
:103BE00053FB0A2800D0E7E6464B9A4500D9E3E6A6
:103BF0007B880B35ADB24B4502D13B884B4529D074
:103C00003889FFF7BDFC802328185B02984200DB4F
:103C1000D2E63889FFF7B4FC019B4519013B9BB202
:103C2000ADB20193A5E788235A465B005343F318CE
:103C3000DB7A002B46D12F4B5B68002B42D08823C8
:103C40005B005343304A40469B18304A9A80FFF746
:103C500011FEB1E680233A89DB009A42D0D12B00D5
:103C60000422200005A901F00FFB042800D0A3E6E0
:103C700088255B466D005D4373199946059A2000BF
:103C80005A6001F09DF97868FFF77EFC03234A46ED
:103C900093721F4B984224D87051039940460431C7
:103CA0007118FFF791FC88235A465B005343F25882
:103CB000002A00D083E6F618B37A032B00D07EE604
:103CC000B2727CE6200001F07BF900214046FFF74C
:103CD0007BFC88235A465B005343F6180023B372DB
:103CE0006DE67351D9E7C0469C2E00202A020000E1
:103CF0003A030000942E0020FFFF0000DD7607103D
:103D0000FBFF0000F5FF0000A42E002001030000CF
:103D1000803A09007047C04682B0012801D902B03C
:103D200070478000002903D00A68044BC250F6E7B0
:103D3000034A024B12680192C250F0E7942E002011
:103D4000B0CB0310F0B546464F46D646464BC0B5FD
:103D5000464E8D273400002598467F00A37A022B1B
:103D600035D02CD8002B1FD0414B9946414B9A4659
:103D7000FDF786FBB37A80B2022B40D0F35D022BB5
:103D800043D04B46F35C022B48D05346F35C022BE6
:103D90004DD002230122A37200232081E372280068
:103DA00022736373FFF7AAFC01351134EDB2FF34BF
:103DB000042DD3D11CBC90469946A246F0BD032BDE
:103DC0004ED12368002B13D10023A372ECE7237B91
:103DD000013BDBB22373002BE6D1637B0133DBB203
:103DE0006373042B29D023732800FFF787FCDBE7DC
:103DF000013B2360002BD7D10023A372D4E7338982
:103E00008342B5D0F35D022BBBD11733FF33F35A96
:103E10008342ADD04B46F35C022BB6D18A239B0084
:103E2000F35A8342A4D05346F35C022BB1D1CE2384
:103E30009B00F35A8342ACD19AE7E37A002B08D176
:103E400042465268002A04D001226373E272227350
:103E5000CAE700212800FFF7B7FB0023A372A3E7FE
:103E600005482CF0BBF8C046942E00209C2E002064
:103E70002A0200003A030000D0A80310F0B557460C
:103E80004E464546DE46E0B504008A4691469846D1
:103E900085B0002900D160E2002800D15DE20378FE
:103EA000002B00D159E231F0B7F9431EE25C060065
:103EB0002E2A00D11E00FF2E00D94EE251462000CE
:103EC0000CF01AF807000020002F06D005B03CBC0B
:103ED00090469946A246AB46F0BDC94DAB7A032B3E
:103EE00000D1D2E08D235B00EB5C032B00D1E3E03B
:103EF000C44BEB5C032B00D1F1E0C34BEB5C032B19
:103F000000D101E1C14B1B68002B00D147E2AB7A25
:103F1000022B00D10DE18D235B00EB5C022B00D165
:103F200039E1B84BEB5C9A46022B00D178E1B64BF5
:103F3000EB5C022B00D19BE1B54B1A78AB7A9A4629
:103F4000002B00D10CE2032B00D193E004239A460E
:103F500000238D214900695C002900D107E2032973
:103F600000D141E1A749695C002900D103E203299E
:103F700000D1A8E1A449695C002900D1FFE103292F
:103F800000D1ABE15346042B7CD053461B01534474
:103F90001B01ED18AB7A032B74D100959D4B9B460A
:103FA0001B68002B00D1EEE15B46DB68002B00D1E3
:103FB000EDE15B469B69002B00D1ECE15B465B6A5F
:103FC000002B5FD10333190001938C464B005946F7
:103FD0005046029363449B00C91808720120009D5B
:103FE000A872AA7328005A464D46D55043464B60E6
:103FF00021000400320010302EF072F8A446002395
:10400000854D664433742B68002B00D1CCE16B687E
:10401000002B00D1F6E1AB68002B00D1F6E1EB6894
:10402000002B00D1F6E17D4A13785C1CE4B2032C2E
:1040300000D95DE1A100695800290DD19C1CE4B2B2
:10404000042C00D07AE12B68002B00D0AAE16B6829
:104050000124002B00D1FBE11470009B6C4ADC733F
:104060006B4B50461B7801331370FFF703FC0520A0
:1040700040422BE7AB7BD31ADBB25942594189004E
:104080008A4666E70120404220E7290032002000EE
:104090001031FFF77BFA002800D023E7AB191B7C17
:1040A000002B00D01EE703011818534600012D18FD
:1040B0006A6800201A6009E72900213132002000D7
:1040C000FF31FFF763FA002800D011E7AB19213365
:1040D000FF331B78002B00D00AE70120E3E78C2395
:1040E0009B0032002000E918FFF750FA002800D0AA
:1040F00003E78C2292009446AB1963441B78002B93
:1041000000D0FAE60220CEE7D0239B003200200048
:10411000E918FFF73BFA002800D0F3E6D02292001E
:104120009446AB1963441B780330002B00D0E9E6BA
:10413000B9E72900320020001031FFF727FA0028E4
:1041400000D0E8E6AB191B7C9A46002B00D0E2E6D3
:10415000304B9B461B68002B0FD05B46DB68002B67
:1041600000D161E15B469B69002B00D160E15B46B9
:104170005B6A002B00D0CEE603275B464A467800F8
:10418000C719BF00DA5143465F4405207B605346A0
:1041900040423B729AE62900213132002000FF3173
:1041A000FFF7F4F9002800D0BBE6AB192133FF3349
:1041B0001B78002B00D0B4E6164B9B461B68002BE7
:1041C00000D13AE15B46DB68002B00D12AE15B4677
:1041D0009B69002B00D129E15B465B6A002B00D074
:1041E0009FE601239A46C7E71C31FF31695C511AEB
:1041F000C9B28B4200D3B5E60B0001218A46B1E675
:104200009C2E00202A0200003A030000942E002079
:104210002F380020642E0020542E00202E3800203D
:104220008C239B0032002000E918FFF7AFF900282B
:1042300000D07CE68C2292009446AB1963441B7834
:10424000002B00D073E6844B9B461B68002B94D058
:104250005B46DB68002B00D1E6E05B469B69002BE8
:1042600000D1E5E05B465B6A002B00D05FE683E7A8
:10427000D0239B0032002000E918FFF787F90028BF
:1042800000D059E6D02292009446AB1963441B78C3
:10429000002B00D050E6704B9B461B68002B00D1D2
:1042A000C8E05B46DB68002B00D1C9E05B469B6938
:1042B000002B00D1C8E05B465B6A002B00D03BE6D8
:1042C00003339A4658E76549695C511AC9B28B4273
:1042D00000D34FE60B0002218A464BE66049695C39
:1042E000511AC9B2994200D84CE603239A464CE6CB
:1042F0002B68002B56D16B680124002B00D0ABE655
:104300002419A300EB58002B00D0A5E60134E4B239
:10431000042C20D11C00BF00EB59002B00D09BE6E1
:10432000042200990120CA738B720199029A8C466B
:104330005946624492008B504042C7E5A10069583B
:10434000002900D088E60333DCB2042CD9D12B68D5
:10435000002B27D101242700DDE710204042B5E5DE
:1043600000210B015B181B01EB18009316E60123DB
:1043700001219A46F5E7022302219A46F1E7032339
:1043800003319A46EDE70023190001931DE601234E
:104390001900019319E602231900019315E606207E
:1043A000404293E5002457E60023002403932E2087
:1043B00007F0B6F8061E31D02A4B99468023DB0061
:1043C0009846FDF75DF882B24245FAD3494630007F
:1043D00006F04EFE03000833F3D000280AD1002275
:1043E0003000214907F05EF8039B9B00EE501F4B05
:1043F0001C7032E6300007F061F80022039B9B003E
:10440000EA5010E6012301240393D0E7022302249B
:104410000393CCE7032303240393C8E7039B9B0088
:10442000EE5000E601239A460127A6E601239A46AC
:104430000227A2E603339A469FE601239A469CE6AA
:1044400003339A46012798E603339A46022794E6F7
:10445000241927005FE7C046642E00202E020000CA
:104460003E030000B0CB0310A13900102E3800200D
:1044700010B5002482B00094FFF700FD02B010BD1B
:10448000F0B583B06B469C1D0023238001331E00D2
:104490000640184205D0002903DD03780139637016
:1044A0000130032213000340104205D000230129EC
:1044B00038DD03880239023007294BDD083907222D
:1044C0000F009743020005000832BF182A689A18A7
:1044D0009A429B415B42D2186B680835D3189342CD
:1044E000924152429B18AF42F0D1CA08551CD200EB
:1044F000ED00891A1A044019120C1B0C9B18012993
:1045000010DD02889B188A1E012A05DD45885B198B
:10451000052901DD81885B1851084D1C6D0049009B
:104520004019511A012901D1027822702288D3182A
:10453000180C1B041B0CC318180C1B041B0CC018F4
:10454000002E04D0030600041B0C000E184380B29A
:1045500003B0F0BD1A00D0E7F0B54F464646D64648
:10456000C0B51C68089B16001A68050013041B0CD4
:10457000120C9B182204120C240C9B18E3181C0C20
:104580001B041B0CE3181C0C1B041B0C0F00E41871
:10459000002826D00023984601339946FE339A46D8
:1045A00069896868FFF76CFF4A460019040C6B893B
:1045B0000004000C24181A4208D0434653405246C7
:1045C00098462306240A1B0C14401C432D68002D1A
:1045D000E6D14346002B04D0230624041B0C240EF2
:1045E0001C43B8B2FEF7CCFF05003000FEF7C8FF51
:1045F0002D182C19200C2404240C0419200C24043C
:10460000240C0019C04380B21CBC90469946A246B7
:10461000F0BDC04610B582B0049C0094FFF79CFF2B
:1046200002B010BD10B5FFF72BFFC04380B210BD24
:10463000F0B5C646040000B500282AD0FF230026A6
:1046400000270125984661896068FFF719FFC019A6
:10465000070C63890004000C3F181D4207D0424636
:104660003B06380A1B0C104003431F006E402468B1
:10467000002CE8D1002E09D03B0638041B0C000E9C
:104680001843C04380B204BC9046F0BDF84380B2EA
:10469000F9E70148F7E7C046FFFF00007047C04652
:1046A0007047C04610B52DF0E5FC041E06D003226D
:1046B000C31C9343984206D1200010BDFCF74EFB6B
:1046C000FCF74EFBF8E701482BF088FCF0A803103C
:1046D00010B5002807D00322C31C9343984205D18C
:1046E0002DF0ECFC10BD03482BF078FC02482BF0B9
:1046F00075FCC04614A9031024A9031010B52DF0B1
:10470000CBFC10BD28230022F0B54746CE4690468C
:10471000994603320425944680B5124F124B134C30
:10472000B94441463A682160614603338B43002D0A
:104730000BD096880021002200E0030001321960AE
:10474000981919002360AA42F7DB0437B94504D051
:104750003A68D4689368D588E3E70CBC90469946DC
:10476000F0BDC046E0AA0310003A00202837002020
:1047700010B5092810D80C4B8000C458FCF7EEFA8D
:10478000E3681C68002C03D022681A60A30708D1D4
:10479000FCF7E6FA200010BD04482DF04FFF00247E
:1047A000F8E703482BF01AFCE0AA031074A90310E1
:1047B00050A9031070B50C0009280FD800290CD09F
:1047C0000A4B8000C5588B070CD1FCF7C7FAEB6881
:1047D0001A6822601C60FCF7C3FA70BD04482DF013
:1047E0002DFFFAE703482BF0F9FBC046E0AA0310BF
:1047F000B4A9031094A903100C2040427047C0468E
:1048000070B505000C00160082B000292CD043685A
:104810000A6800209A4201D102B070BD33603000B6
:1048200001A9019203F040F8300001A906F086FECC
:1048300001A9300000F018FF392322686A60E95CA2
:10484000343B0B40052B06D0EB69002B01D0280030
:1048500098470120E0E7002AF6D00B07F4D528009E
:10486000291D0AF09DF9EFE701482BF0B7FBC04680
:1048700008AB03107047C046F0B5C64600B504004B
:104880000E001700984682B0002800D190E0099BE6
:10489000002B00D191E0002900D17BE0002F00D156
:1048A00076E04346002B00D16FE0484B0025636162
:1048B0000022392320006560A560E560258600217F
:1048C000E254283004222DF005FC089BE561636268
:1048D0003C2325623E4D2A78E2540A9B23613368CB
:1048E000002B4ED1310001AA2000FFF789FF0122E1
:1048F000A168E0683B68994200D0A36043461B680A
:1049000098422CD1002A2DD02000099B98470028DE
:1049100032D1304B3C2698461F683C23E05C002394
:104920009C46FF2802D163460020A355002F33D0B8
:10493000BC4247D03B00FF2207E01B68002B2BD076
:104940009C423FD0013A002A06D0995D8142F4D1C1
:104950000130C0B2A055E4E71F482BF03FFBE360F5
:10496000002AD1D13100200001AAFFF749FF200021
:10497000099B98470028CCD0002002B004BC904688
:10498000F0BD002000210022B4E7144B98468CE7CC
:10499000124F86E7114E81E7FE2807D00130C0B2E2
:1049A00043462870276020001C60E6E70020F7E7F8
:1049B0000B482DF043FE0020DFE70A482DF03EFEB5
:1049C0000020DAE708482BF009FBC046F947001041
:1049D0003638002048D300206CAB0310B0CB031056
:1049E00018AB031034AB031058AB0310F0B5040040
:1049F0000D0016001F0083B000294ED0002E4AD0B3
:104A0000002F46D02B680022002B0CD03368A16801
:104A10008B4200D0A3603B68E1688B4230D1002A12
:104A200031D003B0F0BD616801220029EED06846A4
:104A3000009101A9019302F037FF684601A906F031
:104A40007DFD01A9684600F00FFE39232A686260E7
:104A5000E15C343B0B40052B07D1002A05D00B0746
:104A600003D52000211D0AF09BF8E369002B01D03B
:104A7000200098473368A16801228B42CBD0C9E758
:104A8000E360002ACDD16A4629002000FFF7B8FE76
:104A9000C7E7034FB6E7024EB2E7014DAEE7C046A7
:104AA000B0CB031070B5041E16D04368002B17D18D
:104AB00039220121A35C194224D11D4B1A68A2425C
:104AC0002ED01C4A1368A34204D126E01A68A242E1
:104AD00003D01300002BF9D170BD22681A60FBE7E8
:104AE000051D0021280002F0DFFE0021280006F04D
:104AF00025FD0021280000F0B7FD39220121A35C2B
:104B00001942DAD018008843A0541B070BD4E3697C
:104B1000002BD2D020009847CFE723681360DBE753
:104B200000221A60CDE7200009F022FCEFE7C04622
:104B30004CD3002048D30020014B18607047C0467A
:104B40004CD3002070B5041E16D03925435DDA071A
:104B500011D401221343DBB24355C269002A01D0AC
:104B60009047635D05221A40052A04D16268002A35
:104B700001D01B0704D470BD04482DF05FFDFAE797
:104B80002000211D0AF00CF8F5E7C0469CAB03108D
:104B900070B5041E1ED03925435D5A0700D570BD7F
:104BA00004221343435507F0B3FC0523625D134011
:104BB000052B05D0236A002BF1D020009847EEE7A3
:104BC0006368002BF6D01307F4D52000211D09F0EF
:104BD000E7FFEFE701482DF031FDE0E7B8AB031048
:104BE00010B500280BD039220421835C194205D06E
:104BF0008B438354036A002B00D0984710BD0248B2
:104C00002DF01CFDFAE7C046DCAB0310021E0ED0EF
:104C1000084B1868002809D03C2102E000680028F1
:104C200004D0435C0133DBB29342F7D170470020DC
:104C3000FCE7C04648D30020F8B505000026002850
:104C400026D00F270BE0012B24D0002B2AD12800DF
:104C5000FFF73EFD0136F6B2002C19D02500FCF717
:104C60007DF8AC7B002C1AD0013CE4B2AC73FCF7AD
:104C700077F8002C0CD12B7B2C683B40022BE2D127
:104C8000290009200136FFF795FDF6B2002CE5D189
:104C90003000F8BD29000820FFF78CFDDAE7034853
:104CA0002BF09CF902482BF099F9C04600AC031098
:104CB00018AC031010B5FCF751F80022084B1A701D
:104CC000FCF74EF8074B1868002803D107E0C068CE
:104CD000002804D0436F002BF9D002F04FFE10BD26
:104CE00050D30020E8D30020F0B5C1234F46D6466C
:104CF00046460400C0B50D0017005B009A423CD048
:104D000008D81400433BFF3B9C43012C68D03B4830
:104D10002BF064F9A0239B009A42F8D10327C31C0F
:104D2000CA1CBA43BB439B18180010309A421DD8C6
:104D300082421BD8FFF7B6FC061E18D000230419C8
:104D4000036013342E4B2904BC430D43446085603B
:104D5000C3600CE0FCF702F801222A4B1A70FBF743
:104D6000FFFF002E02D03000FFF766FF0026300064
:104D70001CBC90469946A246F0BD00239846224BA3
:104D800000269A4600230327994684B207E043464B
:104D90006D1AADB21860002DE9D0804600240920BC
:104DA000FFF7E6FC0028D5D05246E31CBB43D31ADC
:104DB0001A1C9BB2AB4200D92A1C4B460419036053
:104DC0001334124BBC4391B2446005814281C360ED
:104DD000002EDCD16D1AADB20600002DDDD1C6E784
:104DE0000820FFF7C5FC061EC1D000230581036023
:104DF0004360458107734373C481B8E72CAC03104B
:104E00008000010050D30020EC050000820001006A
:104E100070B504000D00002832D00189A9421BD9C9
:104E2000691A07E02289ED1A521822812468ADB26E
:104E3000002C1FD06389AB42F4D3227B120701D12F
:104E4000AB420AD12B0420682B43A360002801D079
:104E5000FFF7F2FE0023236070BD63682000191B7A
:104E60004919FFF71DFC002807D08442EAD0064804
:104E70002BF0B4F805482BF0B1F805482BF0AEF84C
:104E800004482BF0ABF8C04694AC031060AC0310A0
:104E900078AC031048AC0310030070B5002820D094
:104EA0008022520291421AD2002916D002898CB275
:104EB000A21892B2944212D8057B01207F2D0DD901
:104EC0005D68691A1D001035A94207D359605989D8
:104ED000002064185C811A8100E0002070BD012070
:104EE000FCE701482BF07AF8CCC3031010B500287A
:104EF0001DD080235B02994212D200290ED0438933
:104F00008AB29A420ED844689B1AA4464381038908
:104F100061449A1A41600281002010BD0020FCE724
:104F20000120FAE703482DF089FB0120F5E702484C
:104F30002BF054F8B0AC0310CCC3031010B500290B
:104F400015DB002834D0002923D003898AB2D31876
:104F50009BB29A4225D8047B7F2C1CD84468611AE6
:104F600041604189038152184281002010BD002810
:104F70001ED0494243898AB29A4214D844689B1A87
:104F8000A4464381038961449A1A4160028100204A
:104F9000ECE70020EAE74468611A04001034A142FB
:104FA000DED20120E2E704482DF048FB0120DDE7D6
:104FB00002482BF013F8C046B0AC0310CCC303106A
:104FC00010B5002802D0FFF737FE10BD01482BF0C6
:104FD00005F8C046CCC3031003000020002B04D00A
:104FE0001B68013080B2002BFAD1704710B5041E47
:104FF00009D0FBF7B3FEA37B0133A373FBF7B0FE2D
:10500000A37B002B00D010BD01482AF0E7FFC0466B
:10501000D0AC031010B5002815D0002913D00368B8
:10502000002B07D002890C891219028118001B6815
:10503000002BF7D102894389934208D10A89016084
:105040009B18038110BD03482DF0F8FAFAE70248D7
:105050002AF0C4FFE4AC03101CAD031010B50C0023
:1050600000281FD0002923D00368002B07D0028915
:1050700021895218028118001B68002BF7D1028980
:105080004389934218D1228904609B180381FBF75E
:1050900065FEA37B0133A373FBF762FEA37B002BAA
:1050A0000DD010BD07482DF0C9FA002CF9D0EEE75D
:1050B00004482DF0C3FAF4E703482AF08FFF0348B1
:1050C0002AF08CFFE4AC03101CAD0310D0AC03102D
:1050D000F0B54F46D64646468146C0B592460F1EAD
:1050E000984600D1A0E00B89934200D29CE00028B2
:1050F00000D19FE04346028953449A4200DA99E086
:10510000002644890CE07A893B899A424ED04B466E
:105110005C891B899C423BD05346002B00D166E042
:1051200042467B89A41A9B1B9C4200D91C00554611
:10513000A24500D925004B465B682A00434418006D
:105140007B68A84499192CF0CBFF534676195D1B58
:10515000ABB29A464B465C89444500D273E07B89EA
:10516000B34200D26CE003D13F680026002F26D066
:105170004445C8D14B461B689946002B2ED0002FC2
:105180003CD1002398464B465C891B899C42C3D185
:105190004B461B68002BBFD02C482DF04FFA062041
:1051A00040421CBC90469946A246F0BD3B68002B8D
:1051B000ADD026482DF042FA06204042F1E7534692
:1051C000002B25D144451CD04B461B899C420ED157
:1051D0004B461B685646002B9ED0DDE75346002BFE
:1051E0001CD1002F03D03A897B899A4201D000203C
:1051F000D7E73B68002BDCD10020D2E7002398469C
:1052000081E74B461B689946002BF0D05646B8E71D
:105210000F482DF013FA10204042C2E70D482DF040
:105220000DFA10204042BCE70B482DF007FA102081
:105230004042B6E709482DF001FA10204042B0E79D
:1052400007482AF0CBFE07482AF0C8FE04AE031038
:10525000E4AD0310F4AD03104CAD031080AD0310AA
:10526000C8AD0310B0AD031010B5002904D0002361
:105270000A89FFF72DFF10BD02482DF0DFF910203D
:105280004042F8E73CAE0310E0B5CE4647468946BB
:1052900080B5060017001900002831D04B46002BBE
:1052A00034D000239846002A05D124E03668491BF3
:1052B00089B2002E1FD07589002901D0A942F5D2EC
:1052C0006D1AADB23A1CAF4200D92A1C7368484629
:1052D0009C4695B240442A0061442CF001FF4346AD
:1052E0007F1BEB189BB2BFB298463668002F02D0E6
:1052F0000021002EDFD140460CBC90469946E0BD0F
:1053000005482DF09BF900239846F4E703482DF05B
:1053100095F900239846EEE758AE031078AE0310D7
:10532000F8B5CE46474605008846914680B5002828
:1053300030D0002928D0038993421FD316000027BC
:10534000002A02D112E0002D15D06C89B44200D998
:10535000340043466868D91922002CF0C1FE361B80
:105360002D683F19002EEED1B94519D100200CBC93
:1053700090469946F8BD0C482AF030FE0B482DF0B7
:105380005DF901204042F2E709482DF057F910205D
:105390004042ECE707482DF051F910204042E6E783
:1053A00005482AF01BFEC046F0AE0310D0AE031035
:1053B000B4AE03109CAE031008AF0310F0B5D64690
:1053C0004F46464604008A46C0B5002805D13AE05B
:1053D00024685B1B9BB2002C35D065899D42F7D9B0
:1053E00021899F18B9422EDBE91A8A4232DD8AB23E
:1053F000904662685146D0187D1B42462CF070FEE4
:10540000ABB29946002B1CD02568002D32D02B89D9
:105410004F4600264B4502D223E0002D27D06C8951
:10542000BC4200D93C0043469919686822005144A7
:105430002CF056FE3F1B2D683619002FEDD1B145DB
:105440001ED1002001E0012040421CBC904699463C
:10545000A246F0BD60685146C0182CF041FE002005
:10546000F3E709482DF0EAF801204042EDE707484C
:105470002AF0B4FD06482DF0E1F810204042E4E7A0
:1054800004482AF0ABFDC046D0AE0310F0AE0310C6
:105490009CAE031008AF03100B0070B51500118906
:1054A0001A00FFF721FC041E06D0002329002A89D8
:1054B000FFF70EFE002801D1200070BD01482AF040
:1054C0008DFDC04620AF0310002805D10DE0006817
:1054D000C91A89B2002805D043898B42F7D943689D
:1054E000585C704701204042FBE70138F9E7C046AD
:1054F00005E043898B4205D8C91A006889B20028A3
:10550000F7D1704743685A54FBE7C046F0B5574699
:105510004546DE464E468046E0B54F4F83B039687B
:1055200078690AF0CBFC43465A684C4B557A1C68A4
:105530009A46002C00D187E0002843D101230026A1
:105540009B46844604E0E3682600002B32D01C0012
:10555000237CAB42F7D1217A002906D03C2378681E
:10556000C35C0133DBB29942EDD12368002B02D03A
:1055700079698B42E7D15946637C194203D063684D
:1055800039698B42DFD163699946002BDBD00192E8
:1055900021004246324BA069C847002849D1434602
:1055A0005A68019B934253D102239C46E36826002C
:1055B000002BCCD1604603B03CBC90469946A24635
:1055C000AB46F0BD0020012300269B46844604E044
:1055D000E3682600002BEDD01C00237CAB42F7D102
:1055E000217A002906D03C237868C35C0133DBB202
:1055F0009942EDD12368002BEAD15946637C1942C8
:1056000003D0636839698B42E2D163699946002B04
:10561000DED0019221004246114BA069C847002804
:1056200007D143465A68019B9A4211D102239C46F6
:10563000CEE7002E0AD0E3680120F36053461B68D2
:10564000E36053461C60B6E70020B4E70120B2E7F0
:1056500004482AF0C3FCC046083900206C370020FB
:105660001839002034AF031010B5002811D002689B
:10567000002A0ED000290CD00B68002B09D0094B52
:105680001B68002B05D01C68944203D0DB68002BFC
:10569000F9D110BD0A681A60DB68002BF9D00268E6
:1056A000F1E7C0466C3700207047C04610B50520B2
:1056B000FFF75EF8041E03D02C2200212CF00AFD17
:1056C000200010BD10B5041E0AD00368002B03D0C3
:1056D0005B6C002B00D0984721000520FFF76AF88B
:1056E00010BDC046002800D081607047002800D05F
:1056F00001617047002800D081617047002800D008
:10570000C161704710B500280AD028230162C25435
:105710000368002B04D01B68002B01D011009847B0
:1057200010BDC046002800D04162704710B5002867
:1057300006D00368002B03D05B68002B00D098478D
:1057400010BDC04610B5002807D00468002C04D056
:10575000E468002C01D0A04710BD06204042FBE7C2
:10576000030010B5002808D00068002804D00469A0
:10577000002C02D01800A04710BD0020FCE7C04656
:1057800010B5002806D00368002B03D05B69002BFE
:1057900000D0984710BDC04610B5002807D0036858
:1057A000002B04D09B69002B01D0984710BD062028
:1057B0004042FBE710B5002807D00468002C04D055
:1057C000246A002C01D0A04710BD06204042FBE710
:1057D00010B5002807D00368002B04D05B6A002BAB
:1057E00001D0984710BD06204042FBE7030010B5EA
:1057F000002809D00268002A06D0926A0020002AF8
:1058000003D01800904700E0002010BD030010B541
:10581000002809D00268002A06D0D26A0020002A97
:1058200003D01800904700E0002010BD10B50028FC
:105830000AD04068002807D00368002B04D09B687A
:10584000002B01D0984710BD06204042FBE7C04620
:1058500010B5002816D000290AD14068002811D0C0
:105860000368002B0ED0DB69002B0BD0984710BDCE
:10587000002AF2D00368002BEFD09B69002BECD0FC
:105880009847F4E706204042F1E7C04610B50028EB
:105890000AD04068002807D00368002B04D05B6A58
:1058A000002B01D0984710BD06204042FBE7C046C0
:1058B00010B500280CD043680020002B07D01A68D0
:1058C000002A04D0D26A002A01D01800904710BDE7
:1058D0000020FCE710B500280CD043680020002B06
:1058E00007D01A68002A04D0126B002A01D01800D1
:1058F000904710BD0020FCE710B5002809D0406893
:10590000002806D00368002B03D05B6B002B00D06F
:10591000984710BD10B5002809D04068002806D06F
:105920000368002B03D09B6B002B00D0984710BD61
:1059300010B500280CD043680020002B07D01A684F
:10594000002A04D0D26B002A01D01800904710BD65
:105950000020FCE710B5002809D04068002806D0D8
:105960000368002B03D01B6C002B00D0984710BDA0
:1059700010B500280AD04068002807D00468002C21
:1059800004D0A46C002C01D0A04710BD06204042DA
:10599000FBE7C04610B500280AD04068002806D0B2
:1059A0000368002B04D0DB6C002B01D0984710BD9E
:1059B0000020FCE710B500280CD043680020002B25
:1059C00007D01A68002A04D0126D002A01D01800EE
:1059D000904710BD0020FCE710B5002809D04068B2
:1059E000002806D00368002B03D05B6D002B00D08D
:1059F000984710BD10B5002809D04068002806D08F
:105A00000468002C03D0A46D002C00D0A04710BD6A
:105A100010B500280CD043680020002B07D01A686E
:105A2000002A04D0D26D002A01D01800904710BD82
:105A30000020FCE770B50500080000F0F5FA041E30
:105A400007D0010028000FF0CFFF051E03D028006B
:105A500070BD0025FBE72000FFF79EFEF7E7C0467C
:105A600010B5041E09D00023C360436A002B01D087
:105A7000806898472000FFF725FE10BD10B500286C
:105A800008D04268C368002A06D10020002B00D04D
:105A9000187D10BD0020FCE701482AF09FFAC0469F
:105AA00080AF031070B5002818D0C468002C15D042
:105AB0004068002813D10825607A284360720029C5
:105AC00000D1084994202150002A00D1064A98218B
:105AD0006250002B00D109339C22A35070BD0348B3
